{
  "_format": "hh-sol-artifact-1",
  "contractName": "Test",
  "sourceName": "contracts/test.sol",
  "abi": [
    {
      "inputs": [],
      "name": "GRID_SIZE",
      "outputs": [
        {
          "internalType": "uint256",
          "name": "",
          "type": "uint256"
        }
      ],
      "stateMutability": "view",
      "type": "function"
    },
    {
      "inputs": [],
      "name": "MAX_SHIPS_PER_PLAYER",
      "outputs": [
        {
          "internalType": "uint256",
          "name": "",
          "type": "uint256"
        }
      ],
      "stateMutability": "view",
      "type": "function"
    },
    {
      "inputs": [],
      "name": "SHIP_SIZE",
      "outputs": [
        {
          "internalType": "uint256",
          "name": "",
          "type": "uint256"
        }
      ],
      "stateMutability": "view",
      "type": "function"
    }
  ],
  "bytecode": "0x608060405234801561001057600080fd5b50610104806100206000396000f3fe6080604052348015600f57600080fd5b5060043610603c5760003560e01c806323ce9e941460415780637fc4eda814605b578063e28c2b46146075575b600080fd5b6047608f565b6040516052919060b5565b60405180910390f35b60616094565b604051606c919060b5565b60405180910390f35b607b6099565b6040516086919060b5565b60405180910390f35b600381565b601481565b600181565b6000819050919050565b60af81609e565b82525050565b600060208201905060c8600083018460a8565b9291505056fea2646970667358221220004e1d5f0a953ab51df8249c311a72f2605532db18e4ecd60cc66ee06f78173764736f6c63430008130033",
  "linkReferences": {},
  "deployedLinkReferences": {}
}