{"contracts/test.sol":{"Test":{"abi":[{"inputs":[],"name":"GRID_SIZE","outputs":[{"internalType":"uint256","name":"","type":"uint256"}],"stateMutability":"view","type":"function"},{"inputs":[],"name":"MAX_SHIPS_PER_PLAYER","outputs":[{"internalType":"uint256","name":"","type":"uint256"}],"stateMutability":"view","type":"function"},{"inputs":[],"name":"SHIP_SIZE","outputs":[{"internalType":"uint256","name":"","type":"uint256"}],"stateMutability":"view","type":"function"}],"evm":{"bytecode":{"linkReferences":{},"object":"608060405234801561001057600080fd5b50610104806100206000396000f3fe6080604052348015600f57600080fd5b5060043610603c5760003560e01c806323ce9e941460415780637fc4eda814605b578063e28c2b46146075575b600080fd5b6047608f565b6040516052919060b5565b60405180910390f35b60616094565b604051606c919060b5565b60405180910390f35b607b6099565b6040516086919060b5565b60405180910390f35b600381565b601481565b600181565b6000819050919050565b60af81609e565b82525050565b600060208201905060c8600083018460a8565b9291505056fea2646970667358221220004e1d5f0a953ab51df8249c311a72f2605532db18e4ecd60cc66ee06f78173764736f6c63430008130033","opcodes":"PUSH1 0x80 PUSH1 0x40 MSTORE CALLVALUE DUP1 ISZERO PUSH2 0x10 JUMPI PUSH1 0x0 DUP1 REVERT JUMPDEST POP PUSH2 0x104 DUP1 PUSH2 0x20 PUSH1 0x0 CODECOPY PUSH1 0x0 RETURN INVALID PUSH1 0x80 PUSH1 0x40 MSTORE CALLVALUE DUP1 ISZERO PUSH1 0xF JUMPI PUSH1 0x0 DUP1 REVERT JUMPDEST POP PUSH1 0x4 CALLDATASIZE LT PUSH1 0x3C JUMPI PUSH1 0x0 CALLDATALOAD PUSH1 0xE0 SHR DUP1 PUSH4 0x23CE9E94 EQ PUSH1 0x41 JUMPI DUP1 PUSH4 0x7FC4EDA8 EQ PUSH1 0x5B JUMPI DUP1 PUSH4 0xE28C2B46 EQ PUSH1 0x75 JUMPI JUMPDEST PUSH1 0x0 DUP1 REVERT JUMPDEST PUSH1 0x47 PUSH1 0x8F JUMP JUMPDEST PUSH1 0x40 MLOAD PUSH1 0x52 SWAP2 SWAP1 PUSH1 0xB5 JUMP JUMPDEST PUSH1 0x40 MLOAD DUP1 SWAP2 SUB SWAP1 RETURN JUMPDEST PUSH1 0x61 PUSH1 0x94 JUMP JUMPDEST PUSH1 0x40 MLOAD PUSH1 0x6C SWAP2 SWAP1 PUSH1 0xB5 JUMP JUMPDEST PUSH1 0x40 MLOAD DUP1 SWAP2 SUB SWAP1 RETURN JUMPDEST PUSH1 0x7B PUSH1 0x99 JUMP JUMPDEST PUSH1 0x40 MLOAD PUSH1 0x86 SWAP2 SWAP1 PUSH1 0xB5 JUMP JUMPDEST PUSH1 0x40 MLOAD DUP1 SWAP2 SUB SWAP1 RETURN JUMPDEST PUSH1 0x3 DUP2 JUMP JUMPDEST PUSH1 0x14 DUP2 JUMP JUMPDEST PUSH1 0x1 DUP2 JUMP JUMPDEST PUSH1 0x0 DUP2 SWAP1 POP SWAP2 SWAP1 POP JUMP JUMPDEST PUSH1 0xAF DUP2 PUSH1 0x9E JUMP JUMPDEST DUP3 MSTORE POP POP JUMP JUMPDEST PUSH1 0x0 PUSH1 0x20 DUP3 ADD SWAP1 POP PUSH1 0xC8 PUSH1 0x0 DUP4 ADD DUP5 PUSH1 0xA8 JUMP JUMPDEST SWAP3 SWAP2 POP POP JUMP INVALID LOG2 PUSH5 0x6970667358 0x22 SLT KECCAK256 STOP 0x4E SAR 0x5F EXP SWAP6 GASPRICE 0xB5 SAR 0xF8 0x24 SWAP13 BALANCE BYTE PUSH19 0xF2605532DB18E4ECD60CC66EE06F7817376473 PUSH16 0x6C634300081300330000000000000000 "},"methodIdentifiers":{"GRID_SIZE()":"7fc4eda8","MAX_SHIPS_PER_PLAYER()":"e28c2b46","SHIP_SIZE()":"23ce9e94"}}}}}